:020000040800F2
:100000001804002011030008050300080503000878
:1000100080B500AF4FF0010000F04CF880BD00BF8C
:1000200080B400AF40F21843C2F200034FF0000268
:100030001A7040F20403C2F2000340F22102C0F63B
:1000400000021A60BD4680BC704700BF80B400AF9C
:1000500040F21843C2F200034FF001021A7040F25E
:100060000403C2F2000340F22102C0F600021A604B
:10007000BD4680BC704700BF80B483B000AF7860DD
:1000800003E07B6803F1FF337B607B68002BF8D1D2
:1000900007F10C07BD4680BC704700BF80B400AFBD
:1000A00040F60803C4F201031B68DBB21846BD46E4
:1000B00080BC704780B483B000AF78607B68012B50
:1000C0000CD140F60C03C4F2010340F60C02C4F25A
:1000D0000102126842F400521A600EE07B68002BA5
:1000E0000BD140F60C03C4F2010340F60C02C4F23B
:1000F0000102126822F400521A6007F10C07BD4693
:1001000080BC704780B400AF41F21803C4F2020310
:1001100041F21802C4F20202126842F004021A60AC
:100120004FF40063C4F201034FF40062C4F2010211
:10013000126822F470021A604FF40063C4F20103E3
:100140004FF40062C4F2010212681A6040F6040320
:10015000C4F2010340F60402C4F20102126822F460
:1001600070021A6040F60403C4F2010340F6040270
:10017000C4F20102126842F022321A60BD4680BC0D
:10018000704700BF80B500AFFFF742FF00F08AF86C
:1001900040F20C03C2F2000340F25922C0F6000202
:1001A0001A6040F20403C2F2000340F22102C0F6DA
:1001B00000021A6040F21403C2F2000340F2B122BE
:1001C000C0F600021A6080BD80B500AFFFF79AFF4D
:1001D000FFF7D8FF40F21403C2F200031B689847F0
:1001E00040F20C03C2F200031B68984740F204037C
:1001F000C2F200031B689847ECE700BF80B483B0ED
:1002000000AF786040F20803C2F200037A681A6017
:1002100040F20803C2F200031A6840F20003C2F27F
:1002200000031B689A4209DC40F20C03C2F200038F
:1002300040F25922C0F600021A6008E040F20C03B6
:10024000C2F2000340F27522C0F600021A6007F104
:100250000C07BD4680BC704780B500AF40F2194323
:10026000C2F200034FF000021A704FF00100FFF7D6
:1002700021FF80BD80B500AF40F21943C2F20003F8
:100280004FF001021A704FF00000FFF713FF48F61D
:100290008050C0F25B00FFF7EFFE4FF00100FFF768
:1002A00009FF80BD80B400AFBD4680BC704700BF71
:1002B00080B500AF40F21A43C2F200034FF00002D3
:1002C0001A70FFF7EBFE024640F21003C2F2000381
:1002D0001A6040F21003C2F200031B681846FFF7D1
:1002E0008DFF40F21403C2F2000340F2B122C0F6C7
:1002F00000021A6048F2A060C0F20100FFF7BCFEE5
:1003000080BD00BF80B500AF00F002F880BD00BF27
:1003100080B586B000AF40F20402C2F2000240F2A3
:100320000003C2F20003D31ABB6040F2B833C0F638
:1003300000037B6140F20003C2F200033B614FF017
:100340000003FB600FE07B691A783B691A703B6918
:1003500003F101033B617B6903F101037B61FB68EE
:1003600003F10103FB60FA68BB689A42EBD340F2E9
:100370001842C2F2000240F20403C2F20003D31A90
:100380007B604FF00003FB600BE03B694FF0000225
:100390001A703B6903F101033B61FB6803F1010340
:1003A000FB60FA687B689A42EFD3FFF70DFF07F115
:0803B0001807BD4680BD00BF27
:0403B800140000002D
:0400000508000000EF
:00000001FF
