:020000040800F2
:10000000002800204D0200089D0200089D02000803
:100010009D0200089D0200089D02000800000000EB
:100020000000000000000000000000009D02000829
:100030009D020008000000009D0200089D020008CB
:100040009D0200089D0200089D0200089D02000814
:100050009D0200089D0200089D0200089D02000804
:100060009D0200089D0200089D0200089D020008F4
:100070009D0200089D0200089D0200089D020008E4
:100080009D0200089D0200089D0200089D020008D4
:100090009D0200089D0200089D0200089D020008C4
:1000A0009D0200089D0200089D0200089D020008B4
:1000B0009D0200089D0200089D0200089D020008A4
:1000C0009D0200089D0200089D0200089D02000894
:1000D0009D0200089D0200089D0200089D02000884
:1000E0009D0200089D020008000000009D0200081B
:1000F0009D0200089D0200089D0200089D02000864
:100100009D0200089D0200089D0200089D02000853
:100110009D0200089D0200089D0200089D02000843
:100120009D0200089D0200089D0200089D02000833
:1001300010B5054C237833B9044B13B10448AFF321
:1001400000800123237010BD00000020000000008B
:10015000E802000808B5034B1BB103490348AFF39D
:10016000008008BD0000000004000020E802000834
:1001700080B400AF0A4B1B68094A43F004031360C4
:10018000084B1B68074A23F400131360054B1B68D8
:10019000044A43F40013136000BFBD4680BC70479F
:1001A000181002400408014080B483B000AF7860AA
:1001B000074B1B6801217A6801FA02F21146044AD2
:1001C0000B43136000BF0C37BD4680BC704700BFB7
:1001D0000C08014080B483B000AF7860074B1B6807
:1001E00001217A6801FA02F2D2431146034A0B4018
:1001F000136000BF0C37BD4680BC70470C0801403F
:1002000080B500AFFFF7B4FF0D20FFF7CDFF41F23F
:10021000883000F008F80D20FFF7DCFF41F288304D
:1002200000F001F8F0E780B485B000AF78600023FB
:10023000FB6002E0FB680133FB60FA687B689A426E
:10024000F8DB00BF1437BD4680BC70470D488546BB
:10025000AFF300800C480D490D4A002302E0D4584A
:10026000C4500433C4188C42F9D30A4A0A4C002300
:1002700001E013600432A242FBD300F011F8FFF753
:10028000BFFFFEE700280020000000200000002043
:1002900008030008000000201C000020FEE700000A
:1002A00070B500250C4E0D4CA41BA410A54209D11D
:1002B00000F01AF800250A4E0A4CA41BA410A5420F
:1002C00005D170BD56F8253098470135EEE756F850
:1002D000253098470135F2E70003000800030008C5
:1002E0000003000804030008F8B500BFF8BC08BC10
:1002F0009E467047F8B500BFF8BC08BC9E467047E4
:04030000550100089B
:0403040031010008BB
:040000050800024DA0
:00000001FF
